:100000000C9434020C9446020C9446020C94460262
:100010000C9446020C9446020C9446020C94460240
:100020000C9446020C9446020C9446020C94460230
:100030000C9446020C9446020C9446020C94460220
:100040000C9472020C9446020C9446020C944602E4
:100050000C9446020C9446020C9446020C94460200
:100060000C9446020C9446028080818283838485AE
:1000700086878788898A8A8B8C8D8E8E8F909191C6
:10008000929394959596979898999A9B9B9C9D9EF0
:100090009E9FA0A1A2A2A3A4A5A5A6A7A7A8A9AA1E
:1000A000AAABACADADAEAFB0B0B1B2B2B3B4B5B552
:1000B000B6B7B7B8B9BABABBBCBCBDBEBEBFC0C08C
:1000C000C1C2C2C3C4C4C5C6C6C7C8C8C9CACACBD0
:1000D000CBCCCDCDCECFCFD0D0D1D2D2D3D3D4D51F
:1000E000D5D6D6D7D7D8D9D9DADADBDBDCDCDDDD7B
:1000F000DEDEDFE0E0E1E1E2E2E3E3E4E4E4E5E5E3
:10010000E6E6E7E7E8E8E9E9EAEAEAEBEBECECEC5B
:10011000EDEDEEEEEEEFEFF0F0F0F1F1F1F2F2F2E4
:10012000F3F3F3F4F4F4F5F5F5F6F6F6F6F7F7F77E
:10013000F8F8F8F8F9F9F9F9FAFAFAFAFAFBFBFB28
:10014000FBFBFCFCFCFCFCFCFDFDFDFDFDFDFDFEE8
:10015000FEFEFEFEFEFEFEFEFEFEFFFFFFFFFFFFB9
:10016000FFFFFFFFFFFFFFFFFFFFFFFFFFFFFFFF9F
:10017000FFFFFFFFFFFFFFFEFEFEFEFEFEFEFEFE98
:10018000FEFEFDFDFDFDFDFDFDFCFCFCFCFCFCFBA5
:10019000FBFBFBFBFAFAFAFAFAF9F9F9F9F8F8F8C5
:1001A000F8F7F7F7F6F6F6F6F5F5F5F4F4F4F3F3F9
:1001B000F3F2F2F2F1F1F1F0F0F0EFEFEEEEEEED3E
:1001C000EDECECECEBEBEAEAEAE9E9E8E8E7E7E694
:1001D000E6E5E5E4E4E4E3E3E2E2E1E1E0E0DFDEFA
:1001E000DEDDDDDCDCDBDBDADAD9D9D8D7D7D6D671
:1001F000D5D5D4D3D3D2D2D1D0D0CFCFCECDCDCCF4
:10020000CBCBCACAC9C8C8C7C6C6C5C4C4C3C2C284
:10021000C1C0C0BFBEBEBDBCBCBBBABAB9B8B7B71F
:10022000B6B5B5B4B3B2B2B1B0B0AFAEADADACABC4
:10023000AAAAA9A8A7A7A6A5A5A4A3A2A2A1A09F70
:100240009E9E9D9C9B9B9A99989897969595949322
:10025000929191908F8E8E8D8C8B8A8A89888787D8
:100260008685848383828180807F7E7D7C7C7B7A8F
:10027000797878777675757473727171706F6E6E48
:100280006D6C6B6A6A6968676766656464636261FE
:1002900061605F5E5D5D5C5B5A5A595858575655B0
:1002A000555453525251504F4F4E4D4D4C4B4A4A5C
:1002B00049484847464545444343424141403F3F02
:1002C0003E3D3D3C3B3B3A3939383737363535349E
:1002D000343332323130302F2F2E2D2D2C2C2B2A2F
:1002E0002A292928282726262525242423232222B3
:1002F0002121201F1F1E1E1D1D1C1C1B1B1B1A1A2B
:100300001919181817171616151515141413131391
:10031000121211111110100F0F0F0E0E0E0D0D0DE8
:100320000C0C0C0B0B0B0A0A0A090909090808082E
:100330000707070706060606050505050504040464
:100340000404030303030303020202020202020184
:100350000101010101010101010100000000000093
:10036000000000000000000000000000000000008D
:100370000000000000000001010101010101010174
:100380000101020202020202020303030303030447
:100390000404040405050505050606060607070707
:1003A00007080808090909090A0A0A0B0B0B0C0CB3
:1003B0000C0D0D0D0E0E0E0F0F0F1010111111124E
:1003C00012131313141415151516161717181819D8
:1003D000191A1A1B1B1B1C1C1D1D1E1E1F1F202152
:1003E00021222223232424252526262728282929BB
:1003F0002A2A2B2C2C2D2D2E2F2F30303132323318
:10040000343435353637373839393A3B3B3C3D3D66
:100410003E3F3F40414142434344454546474848AB
:10042000494A4A4B4C4D4D4E4F4F505152525354E6
:10043000555556575858595A5A5B5C5D5D5E5F601A
:100440006161626364646566676768696A6A6B6C48
:100450006D6E6E6F70717172737475757677787872
:10046000797A7B7C7C7D7E7F11241FBECFEFD8E024
:10047000DEBFCDBF21E0A0E0B1E001C01D92A630FB
:10048000B207E1F70E94F8020C94FB020C94000002
:10049000ECE7F0E0808180648083808181608083EC
:1004A000EAE7F0E0808186608083808180628083DB
:1004B0008081886080830895EAE7F0E08081806829
:1004C00080838081806480830895EAE7F0E0808102
:1004D0008F77808308950E94D2020E94B702569AB5
:1004E000789408951F920F920FB60F9211248F9354
:1004F0009F93AF93BF93EF93FF93809100019091EF
:100500000101A0910201B0910301825E9109A74D02
:10051000B74F8093000190930101A0930201B09323
:1005200003018091000190910101A0910201B0911D
:100530000301E6E1B695A79597958795EA95D1F7DA
:100540009093050180930401E0910401F09105016D
:10055000E859FF4FE491E7BDFF91EF91BF91AF9153
:100560009F918F910F900FBE0F901F90189584B59B
:10057000806484BD84B5806884BD84B5806184BD99
:1005800084B5806284BD84B5816084BD85B5816099
:1005900085BDEEE6F0E08081816080838FEF87BDCE
:1005A00088BD089580E18093C4001092C500E0ECFE
:1005B000F0E0808182608083E1ECF0E080818861FE
:1005C000808380818068808308959091C00095FF2A
:1005D000FCCF8093C6000895CF93DF93EC018991FF
:1005E000811103C0DF91CF9108950E94E502F7CFFA
:0A05F0000E946B02FFCFF894FFCFCA
:00000001FF
